:10000000C2A675895674381182740E1182748011DB
:1000100082740111829000277400936005118DA3F2
:1000200080F61198020037434845434B494E47201C
:1000300053544154555300758A00758B0075F00078
:10004000D28CD28EE58A858BF0B40AF4E58BB505A7
:10005000028006500280028004D2A68004C2A680DC
:100060005274381182740E118274801182740111DD
:10007000829000A17400936005118DA380F6119801
:1000800080B51198F590C2A1D2A2C2A2221198F512
:1000900090D2A1D2A2C2A22278FF79FFD9FED8FACB
:1000A0002221214C45414B41474520464F554E4466
:1000B00021210074381182740E11827480118274AF
:1000C0000111829000D57400936005118DA380F614
:1000D00011980200374E4F204C45414B4147452077
:0600E000464F554E44009E
:00000001FF
